{
  "_format": "hh-sol-artifact-1",
  "contractName": "Roomrental",
  "sourceName": "src/contracts/roomrental.sol",
  "abi": [
    {
      "inputs": [
        {
          "internalType": "uint256",
          "name": "_taxPercent",
          "type": "uint256"
        },
        {
          "internalType": "uint256",
          "name": "_securityFee",
          "type": "uint256"
        }
      ],
      "stateMutability": "nonpayable",
      "type": "constructor"
    },
    {
      "anonymous": false,
      "inputs": [
        {
          "indexed": true,
          "internalType": "address",
          "name": "previousOwner",
          "type": "address"
        },
        {
          "indexed": true,
          "internalType": "address",
          "name": "newOwner",
          "type": "address"
        }
      ],
      "name": "OwnershipTransferred",
      "type": "event"
    },
    {
      "anonymous": false,
      "inputs": [
        {
          "indexed": false,
          "internalType": "uint256",
          "name": "newFee",
          "type": "uint256"
        }
      ],
      "name": "SecurityFeeUpdated",
      "type": "event"
    },
    {
      "inputs": [
        {
          "internalType": "uint256",
          "name": "appartmentId",
          "type": "uint256"
        },
        {
          "internalType": "string",
          "name": "reviewText",
          "type": "string"
        },
        {
          "internalType": "uint256",
          "name": "value",
          "type": "uint256"
        },
        {
          "internalType": "uint256",
          "name": "cleanliness",
          "type": "uint256"
        },
        {
          "internalType": "uint256",
          "name": "accuracy",
          "type": "uint256"
        },
        {
          "internalType": "uint256",
          "name": "check_in",
          "type": "uint256"
        },
        {
          "internalType": "uint256",
          "name": "communication",
          "type": "uint256"
        },
        {
          "internalType": "uint256",
          "name": "location_score",
          "type": "uint256"
        }
      ],
      "name": "addReview",
      "outputs": [],
      "stateMutability": "nonpayable",
      "type": "function"
    },
    {
      "inputs": [
        {
          "internalType": "uint256",
          "name": "id",
          "type": "uint256"
        },
        {
          "internalType": "uint256",
          "name": "reservationId",
          "type": "uint256"
        }
      ],
      "name": "checkInApartment",
      "outputs": [],
      "stateMutability": "nonpayable",
      "type": "function"
    },
    {
      "inputs": [
        {
          "internalType": "uint256",
          "name": "id",
          "type": "uint256"
        },
        {
          "internalType": "uint256",
          "name": "reservationId",
          "type": "uint256"
        }
      ],
      "name": "claimFunds",
      "outputs": [],
      "stateMutability": "nonpayable",
      "type": "function"
    },
    {
      "inputs": [
        {
          "internalType": "string",
          "name": "title",
          "type": "string"
        },
        {
          "internalType": "string",
          "name": "description",
          "type": "string"
        },
        {
          "internalType": "string",
          "name": "images",
          "type": "string"
        },
        {
          "internalType": "string",
          "name": "category",
          "type": "string"
        },
        {
          "internalType": "string",
          "name": "location",
          "type": "string"
        },
        {
          "internalType": "uint256",
          "name": "bathrooms",
          "type": "uint256"
        },
        {
          "internalType": "uint256",
          "name": "guests",
          "type": "uint256"
        },
        {
          "internalType": "uint256",
          "name": "rooms",
          "type": "uint256"
        },
        {
          "internalType": "uint256",
          "name": "price",
          "type": "uint256"
        }
      ],
      "name": "createAppartment",
      "outputs": [],
      "stateMutability": "nonpayable",
      "type": "function"
    },
    {
      "inputs": [
        {
          "internalType": "uint256",
          "name": "id",
          "type": "uint256"
        }
      ],
      "name": "deleteAppartment",
      "outputs": [],
      "stateMutability": "nonpayable",
      "type": "function"
    },
    {
      "inputs": [
        {
          "internalType": "uint256",
          "name": "id",
          "type": "uint256"
        },
        {
          "internalType": "bool",
          "name": "hasFavorited",
          "type": "bool"
        }
      ],
      "name": "favoriteApartment",
      "outputs": [],
      "stateMutability": "nonpayable",
      "type": "function"
    },
    {
      "inputs": [
        {
          "internalType": "uint256",
          "name": "id",
          "type": "uint256"
        }
      ],
      "name": "getApartment",
      "outputs": [
        {
          "components": [
            {
              "internalType": "uint256",
              "name": "id",
              "type": "uint256"
            },
            {
              "internalType": "string",
              "name": "title",
              "type": "string"
            },
            {
              "internalType": "string",
              "name": "description",
              "type": "string"
            },
            {
              "internalType": "string",
              "name": "images",
              "type": "string"
            },
            {
              "internalType": "string",
              "name": "category",
              "type": "string"
            },
            {
              "internalType": "string",
              "name": "location",
              "type": "string"
            },
            {
              "internalType": "uint256",
              "name": "bathrooms",
              "type": "uint256"
            },
            {
              "internalType": "uint256",
              "name": "guests",
              "type": "uint256"
            },
            {
              "internalType": "uint256",
              "name": "rooms",
              "type": "uint256"
            },
            {
              "internalType": "uint256",
              "name": "price",
              "type": "uint256"
            },
            {
              "internalType": "address",
              "name": "owner",
              "type": "address"
            },
            {
              "internalType": "bool",
              "name": "reservated",
              "type": "bool"
            },
            {
              "internalType": "bool",
              "name": "deleted",
              "type": "bool"
            },
            {
              "internalType": "bool",
              "name": "availablity",
              "type": "bool"
            },
            {
              "internalType": "uint256",
              "name": "timestamp",
              "type": "uint256"
            }
          ],
          "internalType": "struct Roomrental.ApartmentStruct",
          "name": "",
          "type": "tuple"
        }
      ],
      "stateMutability": "view",
      "type": "function"
    },
    {
      "inputs": [],
      "name": "getApartments",
      "outputs": [
        {
          "components": [
            {
              "internalType": "uint256",
              "name": "id",
              "type": "uint256"
            },
            {
              "internalType": "string",
              "name": "title",
              "type": "string"
            },
            {
              "internalType": "string",
              "name": "description",
              "type": "string"
            },
            {
              "internalType": "string",
              "name": "images",
              "type": "string"
            },
            {
              "internalType": "string",
              "name": "category",
              "type": "string"
            },
            {
              "internalType": "string",
              "name": "location",
              "type": "string"
            },
            {
              "internalType": "uint256",
              "name": "bathrooms",
              "type": "uint256"
            },
            {
              "internalType": "uint256",
              "name": "guests",
              "type": "uint256"
            },
            {
              "internalType": "uint256",
              "name": "rooms",
              "type": "uint256"
            },
            {
              "internalType": "uint256",
              "name": "price",
              "type": "uint256"
            },
            {
              "internalType": "address",
              "name": "owner",
              "type": "address"
            },
            {
              "internalType": "bool",
              "name": "reservated",
              "type": "bool"
            },
            {
              "internalType": "bool",
              "name": "deleted",
              "type": "bool"
            },
            {
              "internalType": "bool",
              "name": "availablity",
              "type": "bool"
            },
            {
              "internalType": "uint256",
              "name": "timestamp",
              "type": "uint256"
            }
          ],
          "internalType": "struct Roomrental.ApartmentStruct[]",
          "name": "Apartments",
          "type": "tuple[]"
        }
      ],
      "stateMutability": "view",
      "type": "function"
    },
    {
      "inputs": [
        {
          "internalType": "uint256",
          "name": "id",
          "type": "uint256"
        }
      ],
      "name": "getFavorites",
      "outputs": [
        {
          "components": [
            {
              "internalType": "uint256",
              "name": "id",
              "type": "uint256"
            },
            {
              "internalType": "uint256",
              "name": "appartmentId",
              "type": "uint256"
            },
            {
              "internalType": "address",
              "name": "guest",
              "type": "address"
            },
            {
              "internalType": "bool",
              "name": "hasfavorited",
              "type": "bool"
            }
          ],
          "internalType": "struct Roomrental.FavoriteStruct",
          "name": "",
          "type": "tuple"
        }
      ],
      "stateMutability": "view",
      "type": "function"
    },
    {
      "inputs": [
        {
          "internalType": "uint256",
          "name": "id",
          "type": "uint256"
        },
        {
          "internalType": "uint256",
          "name": "reservationId",
          "type": "uint256"
        }
      ],
      "name": "getReservation",
      "outputs": [
        {
          "components": [
            {
              "internalType": "uint256",
              "name": "id",
              "type": "uint256"
            },
            {
              "internalType": "address",
              "name": "tenant",
              "type": "address"
            },
            {
              "internalType": "uint256",
              "name": "date",
              "type": "uint256"
            },
            {
              "internalType": "uint256",
              "name": "price",
              "type": "uint256"
            },
            {
              "internalType": "bool",
              "name": "checked",
              "type": "bool"
            },
            {
              "internalType": "bool",
              "name": "cancelled",
              "type": "bool"
            }
          ],
          "internalType": "struct Roomrental.ReservationStruct",
          "name": "",
          "type": "tuple"
        }
      ],
      "stateMutability": "view",
      "type": "function"
    },
    {
      "inputs": [
        {
          "internalType": "uint256",
          "name": "id",
          "type": "uint256"
        }
      ],
      "name": "getReservations",
      "outputs": [
        {
          "components": [
            {
              "internalType": "uint256",
              "name": "id",
              "type": "uint256"
            },
            {
              "internalType": "address",
              "name": "tenant",
              "type": "address"
            },
            {
              "internalType": "uint256",
              "name": "date",
              "type": "uint256"
            },
            {
              "internalType": "uint256",
              "name": "price",
              "type": "uint256"
            },
            {
              "internalType": "bool",
              "name": "checked",
              "type": "bool"
            },
            {
              "internalType": "bool",
              "name": "cancelled",
              "type": "bool"
            }
          ],
          "internalType": "struct Roomrental.ReservationStruct[]",
          "name": "",
          "type": "tuple[]"
        }
      ],
      "stateMutability": "view",
      "type": "function"
    },
    {
      "inputs": [
        {
          "internalType": "uint256",
          "name": "appartmentId",
          "type": "uint256"
        }
      ],
      "name": "getReviews",
      "outputs": [
        {
          "components": [
            {
              "internalType": "uint256",
              "name": "id",
              "type": "uint256"
            },
            {
              "internalType": "uint256",
              "name": "appartmentId",
              "type": "uint256"
            },
            {
              "internalType": "string",
              "name": "reviewText",
              "type": "string"
            },
            {
              "internalType": "uint256",
              "name": "value",
              "type": "uint256"
            },
            {
              "internalType": "uint256",
              "name": "cleanliness",
              "type": "uint256"
            },
            {
              "internalType": "uint256",
              "name": "accuracy",
              "type": "uint256"
            },
            {
              "internalType": "uint256",
              "name": "check_in",
              "type": "uint256"
            },
            {
              "internalType": "uint256",
              "name": "communication",
              "type": "uint256"
            },
            {
              "internalType": "uint256",
              "name": "location_score",
              "type": "uint256"
            },
            {
              "internalType": "uint256",
              "name": "timestamp",
              "type": "uint256"
            },
            {
              "internalType": "address",
              "name": "owner",
              "type": "address"
            }
          ],
          "internalType": "struct Roomrental.ReviewStruct[]",
          "name": "",
          "type": "tuple[]"
        }
      ],
      "stateMutability": "view",
      "type": "function"
    },
    {
      "inputs": [
        {
          "internalType": "uint256",
          "name": "id",
          "type": "uint256"
        }
      ],
      "name": "getUnavailableDates",
      "outputs": [
        {
          "internalType": "uint256[]",
          "name": "",
          "type": "uint256[]"
        }
      ],
      "stateMutability": "view",
      "type": "function"
    },
    {
      "inputs": [
        {
          "internalType": "uint256",
          "name": "id",
          "type": "uint256"
        },
        {
          "internalType": "uint256",
          "name": "reservationId",
          "type": "uint256"
        }
      ],
      "name": "hasReservatedDateReached",
      "outputs": [
        {
          "internalType": "bool",
          "name": "",
          "type": "bool"
        }
      ],
      "stateMutability": "view",
      "type": "function"
    },
    {
      "inputs": [],
      "name": "owner",
      "outputs": [
        {
          "internalType": "address",
          "name": "",
          "type": "address"
        }
      ],
      "stateMutability": "view",
      "type": "function"
    },
    {
      "inputs": [
        {
          "internalType": "uint256",
          "name": "id",
          "type": "uint256"
        },
        {
          "internalType": "uint256",
          "name": "reservationId",
          "type": "uint256"
        },
        {
          "internalType": "uint256",
          "name": "date",
          "type": "uint256"
        }
      ],
      "name": "refundReservation",
      "outputs": [],
      "stateMutability": "nonpayable",
      "type": "function"
    },
    {
      "inputs": [],
      "name": "renounceOwnership",
      "outputs": [],
      "stateMutability": "nonpayable",
      "type": "function"
    },
    {
      "inputs": [
        {
          "internalType": "uint256",
          "name": "id",
          "type": "uint256"
        },
        {
          "internalType": "uint256[]",
          "name": "dates",
          "type": "uint256[]"
        }
      ],
      "name": "reservateApartment",
      "outputs": [],
      "stateMutability": "payable",
      "type": "function"
    },
    {
      "inputs": [],
      "name": "securityFee",
      "outputs": [
        {
          "internalType": "uint256",
          "name": "",
          "type": "uint256"
        }
      ],
      "stateMutability": "view",
      "type": "function"
    },
    {
      "inputs": [],
      "name": "taxPercent",
      "outputs": [
        {
          "internalType": "uint256",
          "name": "",
          "type": "uint256"
        }
      ],
      "stateMutability": "view",
      "type": "function"
    },
    {
      "inputs": [
        {
          "internalType": "uint256",
          "name": "appartmentId",
          "type": "uint256"
        }
      ],
      "name": "tenantReservated",
      "outputs": [
        {
          "internalType": "bool",
          "name": "",
          "type": "bool"
        }
      ],
      "stateMutability": "view",
      "type": "function"
    },
    {
      "inputs": [
        {
          "internalType": "address",
          "name": "newOwner",
          "type": "address"
        }
      ],
      "name": "transferOwnership",
      "outputs": [],
      "stateMutability": "nonpayable",
      "type": "function"
    },
    {
      "inputs": [
        {
          "internalType": "uint256",
          "name": "id",
          "type": "uint256"
        },
        {
          "internalType": "string",
          "name": "title",
          "type": "string"
        },
        {
          "internalType": "string",
          "name": "description",
          "type": "string"
        },
        {
          "internalType": "string",
          "name": "images",
          "type": "string"
        },
        {
          "internalType": "string",
          "name": "category",
          "type": "string"
        },
        {
          "internalType": "string",
          "name": "location",
          "type": "string"
        },
        {
          "internalType": "uint256",
          "name": "bathrooms",
          "type": "uint256"
        },
        {
          "internalType": "uint256",
          "name": "guests",
          "type": "uint256"
        },
        {
          "internalType": "uint256",
          "name": "rooms",
          "type": "uint256"
        },
        {
          "internalType": "uint256",
          "name": "price",
          "type": "uint256"
        }
      ],
      "name": "updateAppartment",
      "outputs": [],
      "stateMutability": "nonpayable",
      "type": "function"
    },
    {
      "inputs": [
        {
          "internalType": "uint256",
          "name": "newFee",
          "type": "uint256"
        }
      ],
      "name": "updateSecurityFee",
      "outputs": [],
      "stateMutability": "nonpayable",
      "type": "function"
    },
    {
      "inputs": [
        {
          "internalType": "uint256",
          "name": "newTaxPercent",
          "type": "uint256"
        }
      ],
      "name": "updateTaxPercent",
      "outputs": [],
      "stateMutability": "nonpayable",
      "type": "function"
    }
  ],
  "bytecode": "0x60806040523480156200001157600080fd5b5060405162003b0e38038062003b0e8339810160408190526200003491620000a2565b6200003f3362000052565b60018055600491909155600355620000c7565b600080546001600160a01b038381166001600160a01b0319831681178455604051919092169283917f8be0079c531659141344cd1fd0a4f28419497f9722a3daafe3b4186f6b6457e09190a35050565b60008060408385031215620000b657600080fd5b505080516020909101519092909150565b613a3780620000d76000396000f3fe6080604052600436106101665760003560e01c80639bd21370116100d1578063c4452e061161008a578063db2f80b711610064578063db2f80b71461050f578063dec30d391461053c578063eb4614451461055c578063f2fde38b1461057c57600080fd5b8063c4452e061461049f578063d68e1302146104cc578063d6b6d0b5146104e257600080fd5b80639bd21370146103d05780639d4a2255146103f0578063a4e436bc1461041d578063accba49314610430578063af11cd9a1461045d578063b1c980991461047d57600080fd5b8063715018a611610123578063715018a61461025d5780637541f41c1461027257806378419f61146102965780637aef370c146102b657806388b1973a146103885780638da5cb5b146103a857600080fd5b8063010b58ee1461016b57806301758e631461018d57806311c24db9146101ad57806312a14056146101cd578063545153481461021d578063615911491461023d575b600080fd5b34801561017757600080fd5b5061018b610186366004613080565b61059c565b005b34801561019957600080fd5b5061018b6101a83660046130a2565b610702565b3480156101b957600080fd5b5061018b6101c836600461318e565b6107cb565b3480156101d957600080fd5b506102086101e836600461320a565b336000908152600c60209081526040808320938352929052205460ff1690565b60405190151581526020015b60405180910390f35b34801561022957600080fd5b50610208610238366004613080565b610a5c565b34801561024957600080fd5b5061018b61025836600461320a565b610aa2565b34801561026957600080fd5b5061018b610af2565b34801561027e57600080fd5b5061028860045481565b604051908152602001610214565b3480156102a257600080fd5b5061018b6102b1366004613080565b610b06565b3480156102c257600080fd5b5061034a6102d136600461320a565b60408051608081018252600080825260208201819052918101829052606081019190915250600090815260086020908152604091829020825160808101845281548152600182015492810192909252600201546001600160a01b03811692820192909252600160a01b90910460ff161515606082015290565b604051610214919081518152602080830151908201526040808301516001600160a01b03169082015260609182015115159181019190915260800190565b34801561039457600080fd5b5061018b6103a3366004613223565b610cbe565b3480156103b457600080fd5b506000546040516001600160a01b039091168152602001610214565b3480156103dc57600080fd5b5061018b6103eb36600461324f565b61102a565b3480156103fc57600080fd5b5061041061040b36600461320a565b6114a0565b6040516102149190613393565b61018b61042b366004613471565b611619565b34801561043c57600080fd5b5061045061044b366004613080565b6118d9565b6040516102149190613567565b34801561046957600080fd5b5061018b610478366004613575565b611972565b34801561048957600080fd5b5061049261224f565b6040516102149190613787565b3480156104ab57600080fd5b506104bf6104ba36600461320a565b6126e7565b60405161021491906137e9565b3480156104d857600080fd5b5061028860035481565b3480156104ee57600080fd5b506105026104fd36600461320a565b612a73565b6040516102149190613803565b34801561051b57600080fd5b5061052f61052a36600461320a565b612b24565b6040516102149190613851565b34801561054857600080fd5b5061018b61055736600461320a565b612b86565b34801561056857600080fd5b5061018b61057736600461320a565b612c75565b34801561058857600080fd5b5061018b610597366004613889565b612c82565b6000828152600560205260409020600a01546001600160a01b031633146106005760405162461bcd60e51b8152602060048201526013602482015272556e617574686f72697a656420656e7469747960681b60448201526064015b60405180910390fd5b6000828152600660205260409020805482908110610620576106206138b2565b600091825260209091206004600590920201015460ff16156106545760405162461bcd60e51b81526004016105f7906138c8565b6000828152600660205260408120805483908110610674576106746138b2565b9060005260206000209060050201600301549050600060646004548361069a9190613925565b6106a49190613944565b6000858152600560205260409020600a01549091506106d5906001600160a01b03166106d08385613966565b612cfb565b6106f06106ea6000546001600160a01b031690565b82612cfb565b6106fc33600354612cfb565b50505050565b60008281526009602052604090205460ff166107575760405162461bcd60e51b815260206004820152601460248201527341706172746d656e74206e6f7420666f756e642160601b60448201526064016105f7565b604080516080810182526000602080830182815286845233848601908152951515606085019081529683526008909152929020905181559051600182015590516002909101805492511515600160a01b026001600160a81b03199093166001600160a01b0390921691909117919091179055565b60008881526009602052604090205460ff166108295760405162461bcd60e51b815260206004820152601860248201527f4170706172746d656e74206e6f7420617661696c61626c65000000000000000060448201526064016105f7565b336000908152600c602090815260408083208b845290915290205460ff166108935760405162461bcd60e51b815260206004820152601860248201527f426f6f6b206669727374206265666f726520726576696577000000000000000060448201526064016105f7565b60008751116108e45760405162461bcd60e51b815260206004820152601b60248201527f52657669657720746578742063616e6e6f7420626520656d707479000000000060448201526064016105f7565b61094a6040518061016001604052806000815260200160008152602001606081526020016000815260200160008152602001600081526020016000815260200160008152602001600081526020016000815260200160006001600160a01b031681525090565b600089815260076020818152604080842080548087528684018f81529287018e8152606088018e9052608088018d905260a088018c905260c088018b905260e088018a90526101008801899052426101208901523361014089015294845260018082018355918652948390208651600b90960201948555905190840155905180518493926109df926002850192910190612f1f565b50606082015160038201556080820151600482015560a0820151600582015560c0820151600682015560e082015160078201556101008201516008820155610120820151600982015561014090910151600a90910180546001600160a01b0319166001600160a01b03909216919091179055505050505050505050565b6000610a66612d5b565b6000848152600660205260409020805484908110610a8657610a866138b2565b9060005260206000209060050201600201541090505b92915050565b610aaa612d76565b60008111610ab757600080fd5b60038190556040518181527f3790aeee57809af98fad1b89b9266c7934e03ed46702b541f2fef6f1e89d68279060200160405180910390a150565b610afa612d76565b610b046000612dd0565b565b6000828152600660205260409020805482908110610b2657610b266138b2565b60009182526020909120600590910201600101546001600160a01b03163314610b885760405162461bcd60e51b8152602060048201526014602482015273556e617574686f72697a65642074656e616e742160601b60448201526064016105f7565b6000828152600660205260409020805482908110610ba857610ba86138b2565b600091825260209091206004600590920201015460ff1615610bdc5760405162461bcd60e51b81526004016105f7906138c8565b600082815260066020526040902080546001919083908110610c0057610c006138b2565b60009182526020808320600592909202909101600401805460ff191693151593909317909255838152600690915260408120805483908110610c4457610c446138b2565b90600052602060002090600502016003015490506000606460045483610c6a9190613925565b610c749190613944565b336000908152600c602090815260408083208884528252808320805460ff1916600117905560059091529020600a01549091506106d5906001600160a01b03166106d08385613966565b610cc6612e20565b6000838152600660205260409020805483908110610ce657610ce66138b2565b600091825260209091206004600590920201015460ff1615610d1a5760405162461bcd60e51b81526004016105f7906138c8565b6000546001600160a01b03163314610e4c576000838152600660205260409020805483908110610d4c57610d4c6138b2565b60009182526020909120600590910201600101546001600160a01b03163314610dae5760405162461bcd60e51b8152602060048201526014602482015273556e617574686f72697a65642074656e616e742160601b60448201526064016105f7565b610db6612d5b565b6000848152600660205260409020805484908110610dd657610dd66138b2565b90600052602060002090600502016002015411610e4c5760405162461bcd60e51b815260206004820152602e60248201527f43616e206e6f206c6f6e67657220726566756e642c207265736572766174696f60448201526d1b8819185d19481cdd185c9d195960921b60648201526084016105f7565b600083815260066020526040902080546001919084908110610e7057610e706138b2565b6000918252602080832060046005909302019190910180549315156101000261ff001990941693909317909255848152600b825260408082208483528352808220805460ff19169055858252600a90925290812054610ed190600190613966565b6000858152600a602052604081208054929350909183908110610ef657610ef66138b2565b9060005260206000200154905080600a60008781526020019081526020016000208581548110610f2857610f286138b2565b9060005260206000200181905550600a6000868152602001908152602001600020805480610f5857610f5861397d565b600190038181906000526020600020016000905590556000600660008781526020019081526020016000208581548110610f9457610f946138b2565b906000526020600020906005020160030154905060006064600454600354610fbc9190613925565b610fc69190613944565b6000888152600560205260409020600a0154600354919250610ff9916001600160a01b03909116906106d0908490613966565b61100e6106ea6000546001600160a01b031690565b6110183383612cfb565b5050505061102560018055565b505050565b60008951116110735760405162461bcd60e51b81526020600482015260156024820152747469746c652063616e6e6f7420626520656d70747960581b60448201526064016105f7565b60008851116110c45760405162461bcd60e51b815260206004820152601b60248201527f4465736372697074696f6e2063616e6e6f7420626520656d707479000000000060448201526064016105f7565b600087511161110e5760405162461bcd60e51b8152602060048201526016602482015275496d616765732063616e6e6f7420626520656d70747960501b60448201526064016105f7565b600086511161115a5760405162461bcd60e51b815260206004820152601860248201527763617465676f72792063616e6e6f7420626520656d70747960401b60448201526064016105f7565b60008551116111a65760405162461bcd60e51b81526020600482015260186024820152776c6f636174696f6e2063616e6e6f7420626520656d70747960401b60448201526064016105f7565b600084116111f15760405162461bcd60e51b815260206004820152601860248201527762617468726f6f6d732063616e6e6f74206265207a65726f60401b60448201526064016105f7565b600083116112395760405162461bcd60e51b81526020600482015260156024820152746775657374732063616e6e6f74206265207a65726f60581b60448201526064016105f7565b600082116112805760405162461bcd60e51b8152602060048201526014602482015273526f6f6d732063616e6e6f74206265207a65726f60601b60448201526064016105f7565b600081116112c75760405162461bcd60e51b815260206004820152601460248201527350726963652063616e6e6f74206265207a65726f60601b60448201526064016105f7565b6112d5600280546001019055565b6112dd612fa3565b6002805480835260208084018d815260408086018e9052606086018d9052608086018c905260a086018b905260c086018a905260e08601899052610100860188905261012086018790523361014087015260016101a08701819052426101c0880152600094855260098452818520805460ff19168217905594548452600583529092208451815591518051859461137993908501920190612f1f565b5060408201518051611395916002840191602090910190612f1f565b50606082015180516113b1916003840191602090910190612f1f565b50608082015180516113cd916004840191602090910190612f1f565b5060a082015180516113e9916005840191602090910190612f1f565b5060c0820151600682015560e0820151600782015561010082015160088201556101208201516009820155610140820151600a820180546101608501516101808601516101a08701511515600160b01b0260ff60b01b19911515600160a81b029190911661ffff60a81b19921515600160a01b026001600160a81b03199094166001600160a01b03909616959095179290921716929092179190911790556101c090910151600b9091015550505050505050505050565b606060076000838152602001908152602001600020805480602002602001604051908101604052809291908181526020016000905b8282101561160e57838290600052602060002090600b020160405180610160016040529081600082015481526020016001820154815260200160028201805461151d90613993565b80601f016020809104026020016040519081016040528092919081815260200182805461154990613993565b80156115965780601f1061156b57610100808354040283529160200191611596565b820191906000526020600020905b81548152906001019060200180831161157957829003601f168201915b50505091835250506003820154602080830191909152600483015460408301526005830154606083015260068301546080830152600783015460a0830152600883015460c0830152600983015460e0830152600a909201546001600160a01b03166101009091015290825260019290920191016114d5565b505050509050919050565b60008281526009602052604090205460ff1661166e5760405162461bcd60e51b815260206004820152601460248201527341706172746d656e74206e6f7420666f756e642160601b60448201526064016105f7565b600354815160008481526005602052604090206009015461168f9190613925565b61169991906139ce565b3410156116dd5760405162461bcd60e51b8152602060048201526012602482015271496e73756666696369656e742066756e642160701b60448201526064016105f7565b6116e78282612e7a565b61173e5760405162461bcd60e51b815260206004820152602260248201527f52657365727661746564206461746520666f756e6420616d6f6e672064617465604482015261732160f01b60648201526084016105f7565b60005b815181101561102557611752613028565b60008481526006602090815260409091205482523390820152825183908390811061177f5761177f6138b2565b6020908102919091018101516040808401918252600087815260058085528282206009015460608701908152898352600686528383208054600181810183559185528785208951919094029093019283558787015183820180546001600160a01b039092166001600160a01b03199092169190911790559451600283015551600382015560808601516004909101805460a088015115156101000261ff00199315159390931661ffff1990911617919091179055878152600b9093528220855191929091869086908110611855576118556138b2565b6020026020010151815260200190815260200160002060006101000a81548160ff021916908315150217905550600a60008581526020019081526020016000208383815181106118a7576118a76138b2565b6020908102919091018101518254600181018455600093845291909220015550806118d1816139e6565b915050611741565b6118e1613028565b6000838152600660205260409020805483908110611901576119016138b2565b60009182526020918290206040805160c08101825260059093029091018054835260018101546001600160a01b0316938301939093526002830154908201526003820154606082015260049091015460ff8082161515608084015261010090910416151560a0820152905092915050565b60008a81526009602052604090205460ff1615156001146119cc5760405162461bcd60e51b8152602060048201526014602482015273105c1c185c9d1b595b9d081b9bdd08199bdd5b9960621b60448201526064016105f7565b60008a8152600560205260409020600a01546001600160a01b03163314611a405760405162461bcd60e51b815260206004820152602260248201527f556e617574686f72697a656420706572736f6e6e656c2c206f776e6572206f6e6044820152616c7960f01b60648201526084016105f7565b6000895111611a895760405162461bcd60e51b81526020600482015260156024820152747469746c652063616e6e6f7420626520656d70747960581b60448201526064016105f7565b6000885111611ada5760405162461bcd60e51b815260206004820152601b60248201527f4465736372697074696f6e2063616e6e6f7420626520656d707479000000000060448201526064016105f7565b6000875111611b245760405162461bcd60e51b8152602060048201526016602482015275496d616765732063616e6e6f7420626520656d70747960501b60448201526064016105f7565b6000865111611b705760405162461bcd60e51b815260206004820152601860248201527763617465676f72792063616e6e6f7420626520656d70747960401b60448201526064016105f7565b6000855111611bbc5760405162461bcd60e51b81526020600482015260186024820152776c6f636174696f6e2063616e6e6f7420626520656d70747960401b60448201526064016105f7565b60008411611c075760405162461bcd60e51b815260206004820152601860248201527762617468726f6f6d732063616e6e6f74206265207a65726f60401b60448201526064016105f7565b60008311611c4f5760405162461bcd60e51b81526020600482015260156024820152746775657374732063616e6e6f74206265207a65726f60581b60448201526064016105f7565b60008211611c965760405162461bcd60e51b8152602060048201526014602482015273526f6f6d732063616e6e6f74206265207a65726f60601b60448201526064016105f7565b60008111611cdd5760405162461bcd60e51b815260206004820152601460248201527350726963652063616e6e6f74206265207a65726f60601b60448201526064016105f7565b6000600560008c8152602001908152602001600020604051806101e001604052908160008201548152602001600182018054611d1890613993565b80601f0160208091040260200160405190810160405280929190818152602001828054611d4490613993565b8015611d915780601f10611d6657610100808354040283529160200191611d91565b820191906000526020600020905b815481529060010190602001808311611d7457829003601f168201915b50505050508152602001600282018054611daa90613993565b80601f0160208091040260200160405190810160405280929190818152602001828054611dd690613993565b8015611e235780601f10611df857610100808354040283529160200191611e23565b820191906000526020600020905b815481529060010190602001808311611e0657829003601f168201915b50505050508152602001600382018054611e3c90613993565b80601f0160208091040260200160405190810160405280929190818152602001828054611e6890613993565b8015611eb55780601f10611e8a57610100808354040283529160200191611eb5565b820191906000526020600020905b815481529060010190602001808311611e9857829003601f168201915b50505050508152602001600482018054611ece90613993565b80601f0160208091040260200160405190810160405280929190818152602001828054611efa90613993565b8015611f475780601f10611f1c57610100808354040283529160200191611f47565b820191906000526020600020905b815481529060010190602001808311611f2a57829003601f168201915b50505050508152602001600582018054611f6090613993565b80601f0160208091040260200160405190810160405280929190818152602001828054611f8c90613993565b8015611fd95780601f10611fae57610100808354040283529160200191611fd9565b820191906000526020600020905b815481529060010190602001808311611fbc57829003601f168201915b5050505050815260200160068201548152602001600782015481526020016008820154815260200160098201548152602001600a820160009054906101000a90046001600160a01b03166001600160a01b03166001600160a01b03168152602001600a820160149054906101000a900460ff16151515158152602001600a820160159054906101000a900460ff16151515158152602001600a820160169054906101000a900460ff16151515158152602001600b820154815250509050898160200181905250888160400181905250878160600181905250868160800181905250858160a00181905250848160c0018181525050838160e00181815250508281610100018181525050818161012001818152505080600560008d8152602001908152602001600020600082015181600001556020820151816001019080519060200190612127929190612f1f565b5060408201518051612143916002840191602090910190612f1f565b506060820151805161215f916003840191602090910190612f1f565b506080820151805161217b916004840191602090910190612f1f565b5060a08201518051612197916005840191602090910190612f1f565b5060c0820151600682015560e0820151600782015561010082015160088201556101208201516009820155610140820151600a820180546101608501516101808601516101a08701511515600160b01b0260ff60b01b19911515600160a81b029190911661ffff60a81b19921515600160a01b026001600160a81b03199094166001600160a01b03909616959095179290921716929092179190911790556101c090910151600b909101555050505050505050505050565b6060600060015b600254811161229f576000818152600560205260409020600a0154600160a81b900460ff1661228d5781612289816139e6565b9250505b80612297816139e6565b915050612256565b508067ffffffffffffffff8111156122b9576122b96130d7565b6040519080825280602002602001820160405280156122f257816020015b6122df612fa3565b8152602001906001900390816122d75790505b509150600060015b60025481116126e1576000818152600560205260409020600a0154600160a81b900460ff166126cf5760056000828152602001908152602001600020604051806101e00160405290816000820154815260200160018201805461235c90613993565b80601f016020809104026020016040519081016040528092919081815260200182805461238890613993565b80156123d55780601f106123aa576101008083540402835291602001916123d5565b820191906000526020600020905b8154815290600101906020018083116123b857829003601f168201915b505050505081526020016002820180546123ee90613993565b80601f016020809104026020016040519081016040528092919081815260200182805461241a90613993565b80156124675780601f1061243c57610100808354040283529160200191612467565b820191906000526020600020905b81548152906001019060200180831161244a57829003601f168201915b5050505050815260200160038201805461248090613993565b80601f01602080910402602001604051908101604052809291908181526020018280546124ac90613993565b80156124f95780601f106124ce576101008083540402835291602001916124f9565b820191906000526020600020905b8154815290600101906020018083116124dc57829003601f168201915b5050505050815260200160048201805461251290613993565b80601f016020809104026020016040519081016040528092919081815260200182805461253e90613993565b801561258b5780601f106125605761010080835404028352916020019161258b565b820191906000526020600020905b81548152906001019060200180831161256e57829003601f168201915b505050505081526020016005820180546125a490613993565b80601f01602080910402602001604051908101604052809291908181526020018280546125d090613993565b801561261d5780601f106125f25761010080835404028352916020019161261d565b820191906000526020600020905b81548152906001019060200180831161260057829003601f168201915b505050918352505060068201546020820152600782015460408201526008820154606082015260098201546080820152600a8201546001600160a01b03811660a083015260ff600160a01b82048116151560c0840152600160a81b82048116151560e0840152600160b01b909104161515610100820152600b909101546101209091015284518590849081106126b5576126b56138b2565b602002602001018190525081806126cb906139e6565b9250505b806126d9816139e6565b9150506122fa565b50505090565b6126ef612fa3565b60056000838152602001908152602001600020604051806101e00160405290816000820154815260200160018201805461272890613993565b80601f016020809104026020016040519081016040528092919081815260200182805461275490613993565b80156127a15780601f10612776576101008083540402835291602001916127a1565b820191906000526020600020905b81548152906001019060200180831161278457829003601f168201915b505050505081526020016002820180546127ba90613993565b80601f01602080910402602001604051908101604052809291908181526020018280546127e690613993565b80156128335780601f1061280857610100808354040283529160200191612833565b820191906000526020600020905b81548152906001019060200180831161281657829003601f168201915b5050505050815260200160038201805461284c90613993565b80601f016020809104026020016040519081016040528092919081815260200182805461287890613993565b80156128c55780601f1061289a576101008083540402835291602001916128c5565b820191906000526020600020905b8154815290600101906020018083116128a857829003601f168201915b505050505081526020016004820180546128de90613993565b80601f016020809104026020016040519081016040528092919081815260200182805461290a90613993565b80156129575780601f1061292c57610100808354040283529160200191612957565b820191906000526020600020905b81548152906001019060200180831161293a57829003601f168201915b5050505050815260200160058201805461297090613993565b80601f016020809104026020016040519081016040528092919081815260200182805461299c90613993565b80156129e95780601f106129be576101008083540402835291602001916129e9565b820191906000526020600020905b8154815290600101906020018083116129cc57829003601f168201915b505050918352505060068201546020820152600782015460408201526008820154606082015260098201546080820152600a8201546001600160a01b03811660a083015260ff600160a01b82048116151560c0840152600160a81b82048116151560e0840152600160b01b909104161515610100820152600b909101546101209091015292915050565b606060066000838152602001908152602001600020805480602002602001604051908101604052809291908181526020016000905b8282101561160e5760008481526020908190206040805160c08101825260058602909201805483526001808201546001600160a01b031684860152600282015492840192909252600381015460608401526004015460ff8082161515608085015261010090910416151560a08301529083529092019101612aa8565b6000818152600a6020908152604091829020805483518184028101840190945280845260609392830182828015612b7a57602002820191906000526020600020905b815481526020019060010190808311612b66575b50505050509050919050565b60008181526009602052604090205460ff161515600114612be05760405162461bcd60e51b8152602060048201526014602482015273105c1c185c9d1b595b9d081b9bdd08199bdd5b9960621b60448201526064016105f7565b6000818152600560205260409020600a01546001600160a01b03163314612c3f5760405162461bcd60e51b8152602060048201526013602482015272556e617574686f72697a656420656e7469747960681b60448201526064016105f7565b6000908152600960209081526040808320805460ff1916905560059091529020600a01805460ff60a81b1916600160a81b179055565b612c7d612d76565b600455565b612c8a612d76565b6001600160a01b038116612cef5760405162461bcd60e51b815260206004820152602660248201527f4f776e61626c653a206e6577206f776e657220697320746865207a65726f206160448201526564647265737360d01b60648201526084016105f7565b612cf881612dd0565b50565b6000826001600160a01b03168260405160006040518083038185875af1925050503d8060008114612d48576040519150601f19603f3d011682016040523d82523d6000602084013e612d4d565b606091505b505090508061102557600080fd5b600080612d6a426103e8613925565b610a9c906103e86139ce565b6000546001600160a01b03163314610b045760405162461bcd60e51b815260206004820181905260248201527f4f776e61626c653a2063616c6c6572206973206e6f7420746865206f776e657260448201526064016105f7565b600080546001600160a01b038381166001600160a01b0319831681178455604051919092169283917f8be0079c531659141344cd1fd0a4f28419497f9722a3daafe3b4186f6b6457e09190a35050565b60026001541415612e735760405162461bcd60e51b815260206004820152601f60248201527f5265656e7472616e637947756172643a207265656e7472616e742063616c6c0060448201526064016105f7565b6002600155565b60006001815b8351811015612f175760005b6000868152600a6020526040902054811015612f04576000868152600a60205260409020805482908110612ec257612ec26138b2565b9060005260206000200154858381518110612edf57612edf6138b2565b60200260200101511415612ef257600092505b80612efc816139e6565b915050612e8c565b5080612f0f816139e6565b915050612e80565b509392505050565b828054612f2b90613993565b90600052602060002090601f016020900481019282612f4d5760008555612f93565b82601f10612f6657805160ff1916838001178555612f93565b82800160010185558215612f93579182015b82811115612f93578251825591602001919060010190612f78565b50612f9f92915061306b565b5090565b604051806101e001604052806000815260200160608152602001606081526020016060815260200160608152602001606081526020016000815260200160008152602001600081526020016000815260200160006001600160a01b03168152602001600015158152602001600015158152602001600015158152602001600081525090565b6040518060c001604052806000815260200160006001600160a01b0316815260200160008152602001600081526020016000151581526020016000151581525090565b5b80821115612f9f576000815560010161306c565b6000806040838503121561309357600080fd5b50508035926020909101359150565b600080604083850312156130b557600080fd5b82359150602083013580151581146130cc57600080fd5b809150509250929050565b634e487b7160e01b600052604160045260246000fd5b604051601f8201601f1916810167ffffffffffffffff81118282101715613116576131166130d7565b604052919050565b600082601f83011261312f57600080fd5b813567ffffffffffffffff811115613149576131496130d7565b61315c601f8201601f19166020016130ed565b81815284602083860101111561317157600080fd5b816020850160208301376000918101602001919091529392505050565b600080600080600080600080610100898b0312156131ab57600080fd5b88359750602089013567ffffffffffffffff8111156131c957600080fd5b6131d58b828c0161311e565b989b989a505050506040870135966060810135966080820135965060a0820135955060c0820135945060e09091013592509050565b60006020828403121561321c57600080fd5b5035919050565b60008060006060848603121561323857600080fd5b505081359360208301359350604090920135919050565b60008060008060008060008060006101208a8c03121561326e57600080fd5b893567ffffffffffffffff8082111561328657600080fd5b6132928d838e0161311e565b9a5060208c01359150808211156132a857600080fd5b6132b48d838e0161311e565b995060408c01359150808211156132ca57600080fd5b6132d68d838e0161311e565b985060608c01359150808211156132ec57600080fd5b6132f88d838e0161311e565b975060808c013591508082111561330e57600080fd5b5061331b8c828d0161311e565b999c989b50969995989760a0870135975060c08701359660e081013596506101000135945092505050565b6000815180845260005b8181101561336c57602081850181015186830182015201613350565b8181111561337e576000602083870101525b50601f01601f19169290920160200192915050565b60006020808301818452808551808352604092508286019150828160051b87010184880160005b8381101561346357603f1989840301855281516101608151855288820151898601528782015181898701526133f182870182613346565b606084810151908801526080808501519088015260a0808501519088015260c0808501519088015260e0808501519088015261010080850151908801526101208085015190880152610140938401516001600160a01b03169390960192909252505093860193908601906001016133ba565b509098975050505050505050565b6000806040838503121561348457600080fd5b8235915060208084013567ffffffffffffffff808211156134a457600080fd5b818601915086601f8301126134b857600080fd5b8135818111156134ca576134ca6130d7565b8060051b91506134db8483016130ed565b81815291830184019184810190898411156134f557600080fd5b938501935b83851015613513578435825293850193908501906134fa565b8096505050505050509250929050565b805182526020808201516001600160a01b031690830152604080820151908301526060808201519083015260808082015115159083015260a0908101511515910152565b60c08101610a9c8284613523565b6000806000806000806000806000806101408b8d03121561359557600080fd5b8a35995060208b013567ffffffffffffffff808211156135b457600080fd5b6135c08e838f0161311e565b9a5060408d01359150808211156135d657600080fd5b6135e28e838f0161311e565b995060608d01359150808211156135f857600080fd5b6136048e838f0161311e565b985060808d013591508082111561361a57600080fd5b6136268e838f0161311e565b975060a08d013591508082111561363c57600080fd5b506136498d828e0161311e565b95505060c08b0135935060e08b013592506101008b013591506101208b013590509295989b9194979a5092959850565b60006101e082518452602083015181602086015261369982860182613346565b915050604083015184820360408601526136b38282613346565b915050606083015184820360608601526136cd8282613346565b915050608083015184820360808601526136e78282613346565b91505060a083015184820360a08601526137018282613346565b91505060c083015160c085015260e083015160e08501526101008084015181860152506101208084015181860152506101408084015161374b828701826001600160a01b03169052565b505061016083810151151590850152610180808401511515908501526101a0808401511515908501526101c09283015192909301919091525090565b6000602080830181845280855180835260408601915060408160051b870101925083870160005b828110156137dc57603f198886030184526137ca858351613679565b945092850192908501906001016137ae565b5092979650505050505050565b6020815260006137fc6020830184613679565b9392505050565b6020808252825182820181905260009190848201906040850190845b8181101561384557613832838551613523565b9284019260c0929092019160010161381f565b50909695505050505050565b6020808252825182820181905260009190848201906040850190845b818110156138455783518352928401929184019160010161386d565b60006020828403121561389b57600080fd5b81356001600160a01b03811681146137fc57600080fd5b634e487b7160e01b600052603260045260246000fd5b60208082526027908201527f41706172746d656e7420616c726561647920636865636b6564206f6e207468696040820152667320646174652160c81b606082015260800190565b634e487b7160e01b600052601160045260246000fd5b600081600019048311821515161561393f5761393f61390f565b500290565b60008261396157634e487b7160e01b600052601260045260246000fd5b500490565b6000828210156139785761397861390f565b500390565b634e487b7160e01b600052603160045260246000fd5b600181811c908216806139a757607f821691505b602082108114156139c857634e487b7160e01b600052602260045260246000fd5b50919050565b600082198211156139e1576139e161390f565b500190565b60006000198214156139fa576139fa61390f565b506001019056fea2646970667358221220f9c252607195d6632fc04e7b932e86f94f7331eece92dfd78ff85005bace3f7964736f6c634300080b0033",
  "linkReferences": {},
  "deployedLinkReferences": {}
}